:020000040800F2
:10000000700D0020450100086124000889230008C4
:1000100029240008010A00082162000800000000ED
:10002000000000000000000000000000A9380008E7
:10003000B9120008000000007D2A000843470008AC
:10004000816200085F0100085F01000819300008A4
:100050005F0100085F0100085F0100085F01000800
:100060005F0100085F0100085F0100085F010008F0
:100070005F0100085F0100085F0100085F010008E0
:100080005F0100085F0100085F0100085F010008D0
:100090005F0100085F0100085F0100085F010008C0
:1000A0005F0100085F0100085F0100085F010008B0
:1000B0005F0100087D4800085F0100085F0100083B
:1000C0005F0100085F0100085F0100085F01000890
:1000D0005F010008C15A0008555C0008A55D0008D2
:1000E0005F0100085F0100085F0100085F01000870
:1000F0005F0100085F0100085F0100085F01000860
:100100005F0100085F0100085F0100085F0100084F
:10011000D95800085F0100085F0100085F0100086E
:100120005F0100085F0100085F0100085F0100082F
:10013000DFF80CD000F0ECFB004800470D71000820
:10014000700D00200648804706480047FEE7FEE79E
:10015000FEE7FEE7FEE7FEE7FEE7FEE7FEE7FEE777
:10016000C9470008310100080649074A086850439A
:1001700043F23902104408604008704701490860A2
:1001800070470000840000206D4EC64140EA010324
:100190009B0703D009E008C9121F08C0042AFAD23D
:1001A00003E011F8013B00F8013B521EF9D2704701
:1001B000D2B201E000F8012B491EFBD270470022A9
:1001C000F6E710B513460A4604461946FFF7F0FF56
:1001D000204610BD80EA010210B502F00043400045
:1001E00026D04A0023D04FEA106101EB1261C0F320
:1001F0005600C2F3560240F4000042F40002A0FB95
:100200000220A1F17F014FEA0040140401D000F167
:10021000010050EA124001D44000491EC2B20C064F
:1002200004EBD010401C4008802A02D003E00020DC
:1002300010BD20F00100002900DA0020184310BD95
:1002400030B480EA010202F0004530F0004221F0B3
:10025000004015D0A0B1C0F3C753C2F3C754C2F3D6
:100260001601C0F31600E41A41F4000140F4000244
:100270007D34914201D3641C00E04900002C02DA75
:1002800030BC002070474FF400000023914201D39E
:10029000891A034340084FEA4101F7D151B1914215
:1002A00002D14FF0004105E002D24FF0010101E020
:1002B0006FF0010103EBC450284430BC00F067BA72
:1002C0002DE9FE4F804681EA0300C00F0C460090E6
:1002D00021F0004123F00045B8EB0200A94105D20E
:1002E0004046214690461C460B46024623F00040FD
:1002F000104304D14046214603B0BDE8F08F270DDE
:10030000C7F30A00C3F30A510290401A0190402833
:1003100066DAC3F3130040F4801B0098924620B1C4
:100320000023D2EB030A63EB0B0B01985946C0F193
:100330004002504600F0FAF906460D46504659462E
:10034000019A00F012FA10EB08006141002487EADC
:10035000115284EAE7731A433BD0009A3AB3019AE8
:10036000012A4FEA075210DC001B61EB02014FF03B
:10037000004202EA0752CDE90042001C41F580111B
:1003800032462B4600F046FAB6E7001B61EB02014D
:10039000001C41F5801300185B412018A2F50017DE
:1003A00047EB030140EAD570B6196D4111E06D08C5
:1003B0004FEA360645EAC0754FEA0752001B61EB6B
:1003C0000201001C41F5801149084FEA3000001974
:1003D000514132462B4603B0BDE8F04F00F00DBA54
:1003E0000098012240000023D0EB020263EBE0738F
:1003F000009821464FEAE074B8EB000061EB04017D
:10040000E9E783F000435BE781F0004158E72DE91D
:10041000FE4F81EA030404F0004421F000410094FF
:100420004FF0000B23F0004350EA010402D052EADF
:10043000030404D10020014603B0BDE8F08FC3F3EC
:100440000A54C1F30A552C44A4F2F3340194A0FBDE
:100450000254C1F3130141F48011C3F3130343F4B5
:10046000801301FB024400FB034E840A970A44EA0E
:10047000815447EA8357A4FB076802958D0A05FB60
:1004800007854FEA932C04FB0C542705029D4FEA85
:10049000065847EA1637B5EB08056EEB070C870ED2
:1004A000920E47EA811742EA8312A7FB0201B6EBDC
:1004B0000B0164EB00042B0D43EA0C335E1844EB94
:1004C0001C50DA465146E7FB0201C5F313044FEA1C
:1004D0000B3343EA14534FEA0432019C43EA060308
:1004E000A4F10C040294009CCDE900B400F092F950
:1004F000A2E72DE9F04D81EA030404F0004B21F05E
:10050000004514464FF0000A23F0004150EA05026E
:1005100020D054EA01021DD0C5F30A570246C5F3A4
:100520001303C1F31300C1F30A5640F4801543F4DA
:100530008013A7EB0608101BD64608F2FD3873EBB4
:10054000050002D308F1010801E092185B41B8F1FF
:10055000000F03DA00200146BDE8F08D00204FF4C3
:100560008011064684460EE0171B73EB050705D382
:10057000121B63EB050306434CEA010C49084FEAE2
:10058000300092185B4150EA0107EDD152EA0300B6
:1005900012D082EA040083EA0501084303D1002255
:1005A0004FF0004308E0101BAB4102D201220023B0
:1005B00002E06FF0010253101AEB06004CEB0851F9
:1005C00010EB0A0041EB0B01BDE8F04D00F015B94E
:1005D000C10F80EAE0700844CA079623002100F0AA
:1005E000DFB80EB5C10F80EAE0700844CA070021E9
:1005F00040F233438DE80E000A460B4600F00AF93C
:1006000003B000BD0EB540F2334102910021CDE9A7
:1006100000110A460B4600F0FDF803B000BD20F0C3
:100620000040C10DC0F3160040F400007F2901DA3C
:1006300000207047962903DCC1F19601C84070473D
:10064000963988407047C1F30A5210B5C1F31301BF
:1006500040F2FF3341F480119A4201DA002010BDCC
:1006600040F233439A42A2F2334203DC524200F09A
:100670006CF810BD904010BD00F0004230F000401A
:100680000AD0C10D01F56071C0F3160042EA0151B4
:10069000C20840071143704700200146704730B53B
:1006A0000B46014600202022012409E021FA02F530
:1006B0009D4205D303FA02F5491B04FA02F52844CA
:1006C000151EA2F10102F1DC30BD2DE9F05F0546F7
:1006D000002092469B4688460646814640241BE001
:1006E000284641464746224600F02FF853465A46D0
:1006F000C01A914110D311461846224600F016F850
:100700002D1A67EB01084F4622460120002100F018
:100710000DF817EB00094E41201EA4F10104DFDCA7
:10072000484631462A464346BDE8F09F202A04DB6E
:10073000203A00FA02F1002070479140C2F12003F4
:1007400020FA03F3194390407047202A04DB203A33
:1007500021FA02F00021704721FA02F3D040C2F1E1
:1007600020029140084319467047202A06DBCB1728
:10077000203A41FA02F043EAE07306E041FA02F35C
:10078000D040C2F120029140084319467047002929
:10079000A8BF7047401C490008BF20F00100704707
:1007A00010B4B0FA80FC00FA0CF050EA010404BF67
:1007B00010BC704749B1CCF1200421FA04F411FABD
:1007C0000CF118BF012121430843A3EB0C01CB1D01
:1007D0000106000A002BBEBF002010BC704700EBD2
:1007E000C35010440029A4BF10BC7047401C4900EE
:1007F00008BF20F0010010BC704710B5002B08DACC
:10080000401C41F1000192185B411A4301D120F0D4
:10081000010010BD2DE9F04D92469B4611B1B1FA91
:1008200081F202E0B0FA80F220329046FFF77EFFBC
:1008300004460F4640EA0A0041EA0B0153465A4675
:10084000084303D120463946BDE8F08D114653EAEE
:10085000010015D0C8F140025046FFF776FF05466B
:100860000E46504659464246FFF760FF084301D006
:10087000012000E00020054346EAE0762C433743A0
:100880000A984FEA4453A0EB08004FEAD4240A30F8
:100890004FF0000244EA47544FEAD72502D5002022
:1008A0000146D1E7010510196941DDE90845001944
:1008B0006941BDE8F04DA0E7C1F30A52C1F313014D
:1008C00040F2FF3341F480119A4202DA00200146DF
:1008D000704740F233439A42A2F2334202DC524262
:1008E000FFF733BFFFF722BF30B5002904DB4FF01D
:1008F0000044404264EB0101002B04DB4FF0004454
:10090000524264EB0303994208BF904230BD00009D
:10091000064C074D06E0E06840F0010394E807004C
:1009200098471034AC42F6D3FFF706FCC8760008AF
:10093000E87600082DE9F04104460D461646FF2CE6
:1009400003D90CA005F0FCFDFF240F2D03D90EA048
:1009500005F0F6FD0F250F2E03D910A005F0F0FDD0
:100960000F26200400EB053000EB06273846BDE8D3
:10097000F0810000626C6F636B206D6178203A3209
:100980003536212100000000736563746F72206D9D
:100990006178203A313621210000000070616765DE
:1009A000206D6178203A31362121000010B50120F8
:1009B00002F0E4F9002002F0E1F910BD08B50146AB
:1009C0000020009003480090009808440090009890
:1009D000008808BD006C00400149086070470000B5
:1009E00000860D4208B500220092044A0092009A47
:1009F00002440092009A116008BD0000006C0040A3
:100A000010B503E003A005F09BFD00E0FAE700BF8E
:100A100010BD00000D0A5761726E6E696E6721216C
:100A2000204275734661756C74204F6363757265FF
:100A3000640D0A00F0B505460E464FF6FF7418E047
:100A4000287802F0BFFC84EA002400270EE014F4AA
:100A5000004F05D048F2050080EA440084B203E06C
:100A60004FF6FF7000EA4404781CC7B2082FEEDB93
:100A70006D1C3000A6F101018EB2E1D1204602F0DA
:100A8000B1FCF0BDF8B504460025002656A005F0DF
:100A900057FD0020FFF7A0FF02205B4B002201461C
:100AA0000090104600F026FB57480A38817AC07A39
:100AB00001EB002085B2002D04DDB5F5B46F01DC3B
:100AC000658002E04FF4B460608002204E4B9B1CB6
:100AD000002203210090104600F00CFB4A480A381F
:100AE000017B407B01EB002085B2002D03DD052D4D
:100AF00001DCA58001E00120A0800220424B1B1DEB
:100B0000002204210090104600F0F4FA3E480A3812
:100B1000817BC07B01EB002085B2002D04DDB5F5A3
:100B2000B46F01DCE58002E04FF4B460E0800220A5
:100B3000354B9B1E002205210090104600F0DAFA8A
:100B400031480A38017A407A01EB002085B2002D45
:100B500004DDB5F5B46F01DC258001E0F0202080D4
:100B60000120294B9B1D002206210090104600F019
:100B7000C1FA25480A38057C002D03DD0A2D01DC69
:100B8000257201E003202072204880881F4949888F
:100B900048431E49C988884211DD1C48C0881B494A
:100BA0004988884203DA194840881849C88017489C
:100BB000C0881649498890FBF1F014498880134891
:100BC0008088032802DD0320104988800020A0725D
:100BD000E0722073012060730320A0731020E07383
:100BE00064206072F8BD00000D0A436F6E6669678D
:100BF000446174615F496E69742073746172742E0C
:100C00002E2E0D0A00000000A60000208C000020FF
:100C100021B1026842F00102026004E002684FF66E
:100C2000FE731A40026070470146486880B2704700
:100C300010B50022026847F6F0739A430C6A8B687D
:100C400023430C6923434C6923438C692343CC69B8
:100C500023434C6A23438C6A23431A430260CB68C4
:100C600043600B6883604B68C36010BD70B500249F
:100C7000002500264FF496713848FFF7A0FA38484F
:100C80008068374908603748FFF7CEFFC0F5967493
:100C90003348C068A04204DA31488089201A86B2FD
:100CA00005E02F48C068C0F59670204486B22C48F5
:100CB000C46000683044401EB0F5967F06DA2848CC
:100CC00000683044401E2649486006E02448006819
:100CD0003044A0F22D102249486021484268016842
:100CE00021A005F02DFC1E484068A0F580712B392D
:100CF00003D100201A49886004E019484068401C6C
:100D00001749886046B31648056840681449096861
:100D100088420ADD002405E02048405D0F4908555F
:100D2000641C6D1CB442F7DB16E0002412E0B5F53C
:100D3000957F05DC1948405D084908556D1C08E0A1
:100D4000A5F580702B3804D11448405D034908553F
:100D50000025641CB442EADB304670BD84030020E9
:100D6000740300206C0002400D0A444D412055419F
:100D70005254322052656365762044617461205379
:100D800074617274204E756D3A25642D2D2D456E5B
:100D900064204E756D3A2025640D0A003D02002046
:100DA0002DE9F04106460F4600240025A0461E48C6
:100DB0000078012835D1FFF759FF0446002C17DDD4
:100DC00021461AA005F0BCFB1D491EA005F0B8FB8A
:100DD00000BF05E01A48415D1EA005F0B1FB6D1C87
:100DE000A542F7DB3946304602F0E8F9804602E0DA
:100DF0001AA005F0A5FB00211B48FFF709FF4FF4DF
:100E000096711A48FFF7DBF90020074908700121A5
:100E10001548FFF7FDFE012240F22441144805F079
:100E200095F84046BDE8F081340000200D0A446189
:100E300074614C656E6774683A25640D0A000000A1
:100E4000840300200D0A55617274333A25730D0A2C
:100E50000000000020252E32782000000D0A4E6F81
:100E600020646174610D0A006C0002403D020020A4
:100E70000044004071200149087070478100002043
:100E800008B50121112001F059FF8020ADF80000C4
:100E900004208DF803006946014800F095FB08BD69
:100EA0000010014008B50121112001F047FF80200A
:100EB000ADF8000010208DF8030003208DF802002B
:100EC0006946024800F080FB08BD000000100140A8
:100ED0002DE9F84F0027B846B94600240025002622
:100EE000A24645480078B8B90120444B002201468B
:100EF0000090104600F0FEF840480078712805DDAB
:100F000071203E4908703EA005F01AFB3B4801786D
:100F100040A005F015FB0AE00120384B00220146F5
:100F20000090104600F056F900203349087006F092
:100F300045F887B205F0FCFF1FFA80F805F08EFF38
:100F40001FFA80F9C8F30E05294636A005F0F8FA15
:100F50002A48057805F0C4FF84B2214639A005F07F
:100F6000EFFA8CB94FF47A7006F0A8FA3D4800F019
:100F7000C1F92248007838B120480078401E1F4946
:100F8000087005F0ADFF84B24FF47A7094FBF0F076
:100F90001A49097800EB010B5846FFF719FB824606
:100FA00031495046FFF716F930490090FFF748F9EC
:100FB0008346FFF734FBC6B239462DA005F0C0FAD0
:100FC000494633A005F0BCFA214639A005F0B8FA2D
:100FD00031463FA005F0B4FA08480078854207D0B2
:100FE0000120064B002201460090104600F0F2F866
:100FF0003046BDE8F88F00002A0000208100002064
:101000000A0D205265674220204552524F5221213D
:101010000D0A00000A0D20526567423A2564200D32
:101020000A0000000A0D20B5E7B3D8B5E7C1F763A1
:10103000757272656E743A256420286D41290D0A17
:10104000000000000A0D20424154542043617061A9
:1010500063697479206C6566743A2564206D416813
:101060000D0A000040420F000000C8420000E442A8
:101070000A0D20B5E7B3D8B5E7D1B9766F6C7461C6
:1010800067653A256420286D56290D0A0000000086
:101090000A0D20B5E7C1BFC0DBBCC6616363756DD7
:1010A000756C6174653A2564206D41680D0A000015
:1010B0000A0D20CAA3D3E0BEF8B6D4B5E7C1BF522B
:1010C0004141433A2564206D41680D0A000000004B
:1010D0000A0D20CAA3D3E0CFE0B6D4B5E7C1BF461E
:1010E000554C4C5F7374617475733A256425250DF6
:1010F0000A0000002DE9F04705460E4617461C463B
:10110000DDF820803A4631462846FFF713FC814639
:1011100002F042FA02F0D4FA124908604FF4FA7071
:1011200000F0E8F802F0ECFA0F4908600D48026898
:10113000084601680DA005F003FA0B48006819493C
:10114000884207D118A005F0FBF9424649462046DF
:1011500002F066F902F06AFB642000F0CBF8BDE80B
:10116000F0870000780000207C0000200D0A204657
:101170006C617368494420697320307825782C208D
:10118000204D616E75666163747572657220446589
:101190007669636520494420697320307825780D8D
:1011A0000A0000001840EF000D0A53504920466C19
:1011B0006173682057323551313238425620697395
:1011C00020726561647920746F2072656164210DFD
:1011D0000A0000002DE9F04705460E4617461C465A
:1011E000DDF820803A4631462846FFF7A3FB8146CA
:1011F00002F0D2F902F064FA134908604FF4487023
:1012000000F078F802F07CFA104908600E48026895
:10121000084601680EA005F093F90C4800681A49C9
:1012200088420DD119A005F08BF9484602F092FAD8
:1012300042464946204602F01DF9C82000F05AF8FF
:1012400002F0F4FABDE8F087780000207C0000206E
:101250000D0A20466C617368494420697320307818
:1012600025782C20204D616E7566616374757265FA
:101270007220446576696365204944206973203093
:101280007825780D0A0000001840EF000D0A535031
:101290004920466C617368205732355131323842EB
:1012A0005620697320726561647920746F207772AB
:1012B000697465210D0A000010B502A005F040F91F
:1012C00010BD00000D0A5761726E6E696E672121B4
:1012D000204465627567204D6F6E69746F7220657A
:1012E0007863657074696F6E204F636375726564AF
:1012F0000D0A000001B50C49009808604FF0E0208D
:10130000006940F001004FF0E021086100BF06488D
:1013100000680028FBD14FF0E020006920F00100B8
:101320004FF0E021086108BD380000202DE9F04FA2
:1013300085B0064688469146734804904FF0000AEF
:1013400000200390834600240025012002900027FE
:10135000102001900C200090DDF810A040F28F11B9
:101360005046FEF72CFFA3206749087020204870E4
:1013700000BF06E018F804106348001D0155601C0A
:10138000C4B2062CF6DB01205F498872484606F09D
:1013900032F85D49A1F80B0040F68800A1F80D0075
:1013A000B1F80D0006F027F85749A1F80D0001200B
:1013B000C873564806F012F8534908610121524893
:1013C000818281750120504981F88E010846808A0A
:1013D00012304880488806F00EF84B4948804FF696
:1013E000FF70A1F88C01102251463046FEF7CEFE68
:1013F0000024102534E004EB440000EB04114248C3
:10140000103000EB410A04EB440000EB04113E48AD
:10141000103000EB41000079801DC7B2E819B0F52B
:10142000947F00DD21E004EB440101EB0412364916
:10143000103101EB4201888805F0DDFF04EB440127
:1014400001EB04123049103101EB42018880701920
:101450003A465146FEF79AFEE819C5B2601CC4B27E
:10146000294890F88E01A042C5DC00BF264890F8BC
:101470008C212846691CCDB232542348B0F88C0127
:1014800002122846691CCDB2325429463046FFF775
:10149000D1FA83461C48A0F88CB1A81E06F800B00B
:1014A0004FEA2B21681E31541948007A002803DDC9
:1014B0001748007A029001E00120029000240EE01B
:1014C0004B4642462946304602F008FA03900398FC
:1014D000A0F51061883900D104E0601CC4B2029804
:1014E0008442EDDB00BF29460AA005F029F800245C
:1014F00005E0315D0DA005F023F8601CC4B2AC42DC
:10150000F7DB05B0BDE8F08F780500200001006032
:101510008C0000200D0A2D2D2D2D4C656E677468F2
:101520003A25642D2D2D2D0D0A0000002D25782D36
:10153000000000002DE9F04306460F463546BC4644
:10154000002100248846002A01DB002B02DA00205B
:10155000BDE8F0839A4201DA0020F9E79A4212D1FD
:1015600012B90BB90020F3E7002108E0685C1CF811
:101570000190484501D00020EAE7481C01B29142A1
:10158000F4DB2846E4E70BB90020E1E7D01A401C61
:101590000FFA80F8002113E0002408E00819285C05
:1015A0001CF80490484500D003E0601C04B29C4243
:1015B000F4DB00BF9C4201D16818C9E7481C01B2A6
:1015C0004145E9DB0020C3E72DE9F0410246002553
:1015D0000026002000230024002791F803C00CF00F
:1015E0000F0591F803C01CF0100F03D091F802C052
:1015F0004CEA050591F800C0BCF1000F31D0146829
:1016000000202BE04FF0010C0CFA00F3B1F800C001
:101610000CEA03069E4220D183004FF00F0C0CFA17
:1016200003F7BC4305FA03FC4CEA040491F803C039
:10163000BCF1280F06D14FF0010C0CFA00FCC2F8E7
:1016400014C00AE091F803C0BCF1480F05D14FF077
:10165000010C0CFA00FCC2F810C0401C0828D1D3C1
:101660001460B1F800C0BCF1FF0F34DD54680020F5
:101670002EE000F1080C4FF0010808FA0CF3B1F865
:1016800000C00CEA03069E4221D183004FF00F0CEC
:101690000CFA03F7BC4305FA03FC4CEA040491F886
:1016A00003C0BCF1280F05D100F1080C08FA0CF8B2
:1016B000C2F8148091F803C0BCF1480F07D100F1C3
:1016C000080C4FF0010808FA0CF8C2F81080401C12
:1016D0000828CED35460BDE8F0810246002093680C
:1016E0000B4201D0012000E00020704741617047AB
:1016F0000161704730B587B01EA30FCB03AC0FC498
:1017000020A103C9CDE90101002400250D2103A872
:1017100005F0FEFD1D48FFF7EDFD1D48007801288E
:1017200004D1FFF7A3FA00201949087008234FF4E9
:10173000967201A91748FFF7FDFE04467CB11648D2
:1017400084420CD2257A00244FF496711148FEF79A
:1017500036FD002011490880284607B030BD4FF4FF
:1017600096710C48FEF72BFD00200C490880FF20E5
:10177000F3E70000AFAF0000AF8016020000A50D38
:101780000A000000AFAF0000AF00160280841E0008
:101790003400002084030020A40400203C0000202A
:1017A00030B587B01EA30FCB03AC0FC420A103C973
:1017B000CDE90101002400250D2103A805F0A8FDB5
:1017C0001D48FFF797FD1D480078012804D1FFF759
:1017D0004DFA00201949087008234FF4967201A9A8
:1017E0001748FFF7A7FE04467CB1164884420CD286
:1017F000257A00244FF496711148FEF7E0FC002092
:1018000011490880284607B030BD4FF496710C4846
:10181000FEF7D5FC00200C490880FF20F3E700000C
:10182000AFAF0000AF801A020000A90D0A0000004F
:10183000AFAF0000AF001A0280841E003400002009
:1018400084030020A40400203C00002030B587B0B1
:101850001EA30FCB03AC0FC420A103C9CDE9010126
:10186000002400250D2103A805F052FD1D48FFF7B7
:1018700041FD1D480078012804D1FFF7F7F9002049
:101880001949087008234FF4967201A91748FFF709
:1018900051FE04467CB1164884420CD2257A0024BD
:1018A0004FF496711148FEF78AFC00201149088018
:1018B000284607B030BD4FF496710C48FEF77FFC08
:1018C00000200C490880FF20F3E70000AFAF0000C4
:1018D000AF801C020000AB0D0A000000AFAF00009B
:1018E000AF001C0280841E0034000020840300200E
:1018F000A40400203C0000202DE9F04F87B030A365
:101900000FCB03AC0FC432A003C8CDE901014FF0E7
:10191000000AD346002000900E2103A805F0F8FC31
:101920002D48FFF7E7FC2D480078012804D1FFF788
:101930009DF900202949087008234FF4967201A9E7
:101940002748FFF7F7FD8246BAF1000F2DD0254852
:1019500082452AD29AF8080000049AF8091000EB90
:1019600001209AF80A10084400900098FEF74AFEF9
:1019700080461D4A1D4BFEF74AFD064600221C4BC1
:10198000FEF7B7FD0446FEF75EFE1FFA80FB4FF040
:10199000000A4FF496711248FEF711FC0020154919
:1019A0000880584607B0BDE8F08F4FF496710C4898
:1019B000FEF705FC00200F4908804FF6FF70F1E7A5
:1019C000AFAF0000AF800C030000009C0D0A0000C8
:1019D000AFAF0000AF000C0380841E003400002075
:1019E00084030020A104002014AE47E17A844E4015
:1019F00080842E413C00002030B587B01EA30FCB61
:101A000003AC0FC420A103C9CDE9010100240025C6
:101A10000D2103A805F07CFC1D48FFF76BFC1D4859
:101A20000078012804D1FFF721F900201949087036
:101A300008234FF4967201A91748FFF77BFD04466F
:101A40007CB1164884420CD2257A00244FF496715A
:101A50001148FEF7B4FB002011490880284607B062
:101A600030BD4FF496710C48FEF7A9FB00200C49DD
:101A70000880FF20F3E70000AFAF0000AF80100246
:101A800000009F0D0A000000AFAF0000AF00100281
:101A900080841E003400002084030020A204002063
:101AA0003C00002030B587B01EA30FCB03AC0FC4A1
:101AB00020A103C9CDE90101002400250D2103A8BF
:101AC00005F026FC1D48FFF715FC1D48007801288D
:101AD00004D1FFF7CBF800201949087008234FF410
:101AE000967201A91748FFF725FD04467CB11648F8
:101AF00084420CD2257A00244FF496711148FEF7E7
:101B00005EFB002011490880284607B030BD4FF425
:101B100096710C48FEF753FB00200C490880FF200B
:101B2000F3E70000AFAF0000AF800E0200009D0D94
:101B30000A000000AFAF0000AF000E0280841E005C
:101B40003400002084030020A20400203C00002078
:101B500030B587B020A30FCB03AC0FC422A103C9BB
:101B6000CDE90101002400250D2103A805F0D0FBDB
:101B70001F48FFF7BFFB1F480078012804D1FFF77B
:101B800075F800201B49087008234FF4967201A9CC
:101B90001948FFF7CFFC04469CB11848844210D284
:101BA000617A207A01EB002085B200244FF496710F
:101BB0001148FEF704FB002011490880284607B0B1
:101BC00030BD4FF496710C48FEF7F9FA00200C492D
:101BD00008804FF6FF70F2E7AFAF0000AF8014024D
:101BE0000000A30D0A000000AFAF0000AF00140218
:101BF00080841E003400002084030020A404002000
:101C00003C00002030B587B01EA30FCB03AC0FC43F
:101C100020A103C9CDE90101002400250D2103A85D
:101C200005F076FB1D48FFF765FB1D48007801288D
:101C300004D1FFF71BF800201949087008234FF45E
:101C4000967201A91748FFF775FC04467CB1164847
:101C500084420CD2257A00244FF496711148FEF785
:101C6000AEFA002011490880284607B030BD4FF475
:101C700096710C48FEF7A3FA00200C490880FF205B
:101C8000F3E70000AFAF0000AF8018020000A70D1F
:101C90000A000000AFAF0000AF00180280841E00F1
:101CA0003400002084030020A40400203C00002015
:101CB0000FB42DE9F04F89B0DDE9216BFE480590A6
:101CC0000027B946012004904FF0000A00240025A7
:101CD0004FF00008102003900C200290DDF81490C3
:101CE00040F28F114846FEF76AFAA320F2490870C5
:101CF0002020487000BF06E01BF80410EE48001DCD
:101D00000155601CC4B2062CF6DB0120EA4988723A
:101D1000239805F070FBE849A1F80B004FF42270FE
:101D2000A1F80D00B1F80D0005F065FBE249A1F83E
:101D30000D000120C8730C2048800024002081F889
:101D40008E01EFE116A850F82400DC4A811A904277
:101D50007ED008DCA0F180500A3809D047283ED058
:101D6000582876D190E1012974D00229F9D106E1F1
:101D7000D249FA3904EB440000EB0412CE4810308B
:101D800000EB42000160012104EB440000EB04126F
:101D9000C948103000EB42008180C948017A04EB49
:101DA000440000EB0412C448103000EB4200817183
:101DB000C14890F88E01401CBF4981F88E01084649
:101DC000418804EB440000EB0412BB48103000EBE8
:101DD000420080880844801DB74948809FE101F097
:101DE000FFF806A9019002F0F7FF9DF81800B4492A
:101DF00088729DF81900C8729DF81A0008739DF842
:101E00001B0048739DF81C008873BDF81E00A0F5E8
:101E1000FA60C873A949B33904EB440000EB04121B
:101E2000A548103000EB42000160062104EB44009D
:101E300000EB0412A048103000EB42008180A04863
:101E4000C17B04EB440000EB04129B48103002E01D
:101E5000D8E063E150E000EB420081719848817B5B
:101E600004EB440000EB04129348103000EB4200F6
:101E7000C1719348417B04EB440000EB04128E488F
:101E8000103000EB420001728D48017B04EB4400EE
:101E900000EB04128848103000EB42004172884881
:101EA000C17A04EB440000EB04128348103000EBCD
:101EB000420081728248817A04EB440000EB0412F4
:101EC0007D48103000EB4200C1727B4890F88E01D3
:101ED000401C794981F88E010846418804EB440092
:101EE00000EB04127448103000EB42008088084474
:101EF000801D7149488012E17049491C04EB44007F
:101F000000EB04126C48103000EB4200016002212B
:101F100004EB440000EB04126748103000EB420071
:101F2000818067484088011204EB440000EB0412F2
:101F30006148103000EB420081716148817804EB08
:101F4000440000EB04125C48103000EB4200C17109
:101F5000594890F88E01401C574981F88E01084677
:101F6000418804EB440000EB04125348103000EBAE
:101F7000420080880844801D4F494880CFE04F4987
:101F8000891C04EB440000EB04124B48103000EBBA
:101F900042000160022104EB440000EB04124648B9
:101FA000103000EB4200818045488088011204EB2C
:101FB000440000EB04124048103000EB42008171F5
:101FC0003F48017904EB440000EB04123A4810301A
:101FD00000EB4200C171384890F88E01401C364930
:101FE00081F88E010846418804EB440000EB04129E
:101FF0003148103000EB420080880844801D2E4993
:1020000048808CE02D4904EB440000EB04122A4880
:10201000103000EB42000160022104EB440000EBB1
:1020200004122548103000EB4200818024480088CB
:10203000011204EB440000EB04121F48103000EBC7
:10204000420081711E48017804EB440000EB041249
:102050001948103000EB4200C171174890F88E010A
:10206000401C154981F88E010846418804EB440064
:1020700000EB04121048103000EB42008088084446
:10208000801D0D4948804AE00C49A23904EB440008
:1020900000EB04120848103000EB420001600221FE
:1020A00004EB440000EB04120348103000EB420044
:1020B00081800348C08805E0070700200401001064
:1020C0008C000020011204EB440000EB0412754860
:1020D00000EB420081717448817904EB440000EB0D
:1020E0000412704800EB4200C1716E48103890F83D
:1020F0008E01401C6B49103981F88E0108464188D9
:1021000004EB440000EB0412664800EB42008088B8
:102110000844801D63491039488000E000BF00BFBB
:10212000601CC4B29DF88200A0423FF70BAE5D492F
:102130001039488805F05FF95A49103948804FF640
:10214000FF70A1F88C01102249463046FEF71EF8B8
:102150000024102545E004EB440101EB0412514931
:1021600001EB4201086805F039F904EB440101EB89
:1021700004124C4901EB4201086004EB440000EBFF
:102180000411484800EB410904EB440000EB041142
:10219000444800EB41000079801D00F0FF0805EB8A
:1021A0000800B0F5947F00DD21E004EB440101EB71
:1021B00004123C4901EB4201888805F01CF904EB4C
:1021C000440101EB0412374901EB42018880701988
:1021D00042464946FDF7DAFF05EB0800C5B2601C30
:1021E000C4B23048103890F88E01A042B3DC00BF72
:1021F0002C48103890F88C212846691CCDB23254F6
:1022000028481038B0F88C0102122846691CCDB25B
:10221000325429463046FEF70DFC824621481038DC
:10222000A0F88CA1A81E06F800A04FEA2A21681E7B
:1022300031541D48007A002803DD1B48007A0490C1
:1022400001E001200490002415E05A46294630465A
:10225000239B01F043FB0746394614A004F070F9B4
:10226000B7F5C47F04D0B7F5627F01D0882F00D1C5
:1022700004E0601CC4B204988442E6DB00BF294637
:1022800014A004F05DF9002405E0315D17A004F00E
:1022900057F9601CC4B2AC42F7DB09B0BDE8F00FDF
:1022A0005DF814FB170700208C0000200D0A526512
:1022B000636569766520476574526573706F6E73E8
:1022C0006520737563636573733A253478210D0A4D
:1022D000000000000D0A2D2D2D2D4C656E677468D1
:1022E0003A25642D2D2D2D0D0A0000002C30782567
:1022F00078000000F0B58DB00446342221496846CC
:10230000FDF744FFE088451E642195FBF1F1284666
:10231000EA1705EB9272C1EBA2014FF4C87295FB6C
:10232000F2F28F18E088C11700EB91718910B0EBC1
:10233000810112D1E188642291FBF2F302FB1311B7
:1023400031B9E188920091FBF2F302FB131121B93C
:102350002179022901DD012600E0002640F26D10FE
:1023600005FB00712079401E5DF820000844E178EB
:1023700008440644072096FBF0F100FB1160207230
:102380000DB0F0BD9476000810B503E003A004F092
:10239000D7F800E0FAE700BF10BD00000D0A576152
:1023A000726E6E696E6721212048617264204661F9
:1023B000756C74204F6363757265640D0A000000CC
:1023C000AA21017000214170032101710021417196
:1023D000704710B504464FF484712046FDF7EFFEB8
:1023E00010BD2DE9F04104462078AA2802D0002033
:1023F000BDE8F081B4F807500020A4F807000927D1
:10240000A079074439462046FEF714FB06463046BD
:1024100004F0F1FF0646A4F80750B54201D10120AF
:10242000E6E70020E4E7000010B503E003A004F0B5
:1024300087F800E0FAE700BF10BD00000D0A576101
:10244000726E6E696E672121204D656D4D616E6102
:102450006765204F6363757265640D0A00000000B4
:1024600010B502A004F06CF810BD00000D0A576111
:10247000726E6E696E672121204E4D49204F636355
:10248000757265640D0A000070B5002100230F22EB
:10249000C4780CB3164C246804F4E064C4F5E0641A
:1024A000210AC1F10403CA40447804FA03F1847894
:1024B0001440214309010F4C0678A155047804F01B
:1024C0001F050124AC4005786D114FF0E02606EBA6
:1024D0008505C5F8004109E0047804F01F050124D2
:1024E000AC40054D0678761145F8264070BD0000D9
:1024F0000CED00E000E400E080E100E0024901436F
:10250000024A1160704700000000FA050CED00E07F
:10251000014908627047000000000E420A48006846
:1025200040F00400084908600846006840F00200D6
:1025300008600648006840F004000449086000BFD5
:1025400000BF30BF704700000070004010ED00E099
:102550000149086070470000A0000E422DE9F043D9
:1025600085B00746002003900490804681460025F0
:1025700000240026CDA207CA8DE807003868039022
:1025800038798DF810009DF80C809DF80D909DF81D
:102590000E50FFF7DDFA044620128DF80000E0B27D
:1025A0008DF801008DF807808DF80890C248FEF77D
:1025B000A1FEB8F1000F6ED1A9F1090013286BD26A
:1025C000DFE800F00A6A146A436A6B6A916A9B6AE0
:1025D000D06AF96AF36AF200022D03D1B7A003F0C2
:1025E000AFFF02E0C2A003F0ABFF5AE1022D28D1F9
:1025F0009DF810009DF80F1000EB012084B202201E
:102600008DF8090020128DF80A00E0B28DF80B0059
:102610000C21684604F0A8FEC048FEF76BFE0C21B2
:10262000684604F0A1FEBE48FEF764FE204601F0B5
:10263000BDFBFFF761F90446611CBAA003F080FFFF
:1026400002E0ABA003F07CFF2BE1012D1FD19DF830
:102650000F6001208DF809008DF80A600B21684693
:1026600004F082FEAD48FEF745FE0B21684604F0FB
:102670007BFEAB48FEF73EFE304601F0F3FCFFF771
:1026800011FA06463146AFA003F05AFF02E098A0C7
:1026900003F056FF05E105E1FFE0012D1FD19DF894
:1026A0000F6001208DF809008DF80A600B21684643
:1026B00004F05AFE9948FEF71DFE0B21684604F00F
:1026C00053FE9748FEF716FE304601F02FFCFFF749
:1026D00093F906463146A7A003F032FF02E084A03A
:1026E00003F02EFFDDE0012D03D1AFA003F028FFA2
:1026F00002E07FA003F024FFD3E0022D2ED19DF84D
:1027000010009DF80F1000EB012084B220128DF80C
:102710000000E0B28DF8010002208DF809002012BF
:102720008DF80A00E0B28DF80B000C21684604F029
:102730001BFE7A48FEF7DEFD0C21684604F014FE0D
:102740007748FEF7D7FD204601F026FDFFF700FA97
:10275000044621469FA003F0F3FE02E064A003F0CC
:10276000EFFE9EE0012D22D19DF80F6001208DF833
:1027700009008DF80A600B21684604F0F5FD6748F2
:10278000FEF7B8FD0B21684604F0EEFD6448FEF745
:10279000B1FD304601F080FDFEF7ACFF0646314644
:1027A00094A003F0CDFE05E051E02AE003E050A044
:1027B00003F0C6FE75E0012D1FD19DF80F600120CA
:1027C0008DF809008DF80A600B21684604F0CCFDF5
:1027D0005248FEF78FFD0B21684604F0C5FD5048B6
:1027E000FEF788FD304601F0D3FDFFF70BFA0646F1
:1027F000314688A003F0A4FE02E03DA003F0A0FE55
:102800004FE0012D1FD19DF80F6001208DF80900C8
:102810008DF80A600B21684604F0A6FD3F48FEF7DC
:1028200069FD0B21684604F09FFD3D48FEF762FDFF
:10283000304601F07FF9FEF7B3FF064631467FA030
:1028400003F07EFE02E02AA003F07AFE29E0012DCB
:102850001FD19DF80F6001208DF809008DF80A60E6
:102860000B21684604F080FD2C48FEF743FD0B2148
:10287000684604F079FD2A48FEF73CFD304601F039
:10288000F7F9FEF7E3FF0646314674A003F058FE61
:1028900002E017A003F054FE03E015A003F050FE81
:1028A00000BF00E000BF05B0BDE8F083AAAAAFFFFB
:1028B000AFEE00AAAAAAAAAAC0C62D000D0A5365A7
:1028C0007269616C20506F727420506172616D6525
:1028D0007465727320436F6E666967206E6F742033
:1028E000616C6C6F7761626C652021210D0A0000BC
:1028F0000D0A526563656976652034333320436F72
:102900006E66696720436F6D6D616E64206E6F74D3
:1029100020636F7272656374210D0A0080841E004B
:1029200040420F000D0A43656E7472616C2046725E
:10293000657175656E6379203A2564204D487A0D7E
:102940000A0000000D0A4E6F6465204672657175BD
:10295000656E637920457870616E642046616374AA
:102960006F7228496E64657820436F6465293A2543
:10297000640D0A000D0A4E6F64652046726571751C
:10298000656E637920457870616E642042616E6483
:10299000776964746828496E64657820436F64655C
:1029A000293A25640D0A00000D0A4E6F6465205710
:1029B0006F726B204D6F646520436F6E6669672090
:1029C0006E6F7420616C6C6F7761626C6520212181
:1029D0000D0A00000D0A343333204D6F64756C65A9
:1029E000204E6F64652049442069733A25780D0AAA
:1029F000000000000D0A343333204D6F64756C65A0
:102A0000204E6574776F726B2049442069733A25B4
:102A1000780D0A000D0A343333204D6F64756C65F0
:102A20002053656E6420506F776572204772616431
:102A3000652069733A25780D0A0000000D0A4E6F73
:102A400064652042726561746820506572696F64C4
:102A50002069733A25780D0A000000000D0A4E6FB8
:102A600064652057616B652054696D652069733A10
:102A700025780D0A000000007047000010B502A084
:102A800003F05EFD10BD00000D0A5761726E6E69A5
:102A90006E6721212050656E64535643206578632C
:102AA000657074696F6E204F6363757265640D0A9B
:102AB0000000000010B54FF4C0725F217F2003F0CA
:102AC000F5FB02F099FF03F03DF803F00BF903F07A
:102AD0006BF902F051FF03F091F801F0A5FE01F04F
:102AE000EBFE0021022000F009F900F0B3FA2548BE
:102AF00000F004FA00F074FA2349086001F026FEA1
:102B00004FF480512148FEF7F3FD2148FEF7F2FB18
:102B10004FF480711D48FEF7EBFD1E48FEF7EAFBFF
:102B20004FF400611948FEF7E3FD1A48FEF7E2FB97
:102B300000201949087064211848FDF740FB002067
:102B40001749086048608860C86020211548FEF772
:102B5000CFFD0F48FEF7CEFB01211348FEF7C6FD5F
:102B60000B48FEF7C7FB4021104803F0B8F90948AD
:102B7000FEF7C0FB40210E4803F0B1F90548FEF70F
:102B8000B9FB10BD6A03002030000020000801409E
:102B9000A086010020A1070041000020B004002011
:102BA0007403002000100140000C0140004400406C
:102BB000004C00402DE9FF47002437A103C9CDE9AF
:102BC000020137A00068019002AE0025A146002056
:102BD000344908703449087064213448FDF7EFFA2D
:102BE0004FF400713248FEF783FD44F62060FEF793
:102BF00081FB00BF0DE031782E4803F03EFA761CD1
:102C000000BF40212B4803F06AF90028F9D0601C6E
:102C1000C4B2082CEFD340F28A20FEF76BFB4FF4CE
:102C200000712348FEF762FD00242DE01D48007866
:102C3000012824D10323642201A91C48FEF77AFC51
:102C40000546C5B119485A30854214D2002405E022
:102C5000E01C285C0DF80400601CC4B2042CF7DBF7
:102C6000DDF800904846FDF707FD07463A460B465B
:102C700011A003F065FC00200A49087006E0164820
:102C8000FEF738FB601CC4B20A2CCFDB00BF4846FD
:102C900004B0BDE8F0870000010400020002D00B80
:102CA00001040400410000203F000020B004002087
:102CB00000100140004C00400D0A506572636570C1
:102CC000742054656D7065726174757265206973E6
:102CD000203A25660D0A0000E093040029B1064A57
:102CE00052690243044B5A6104E0034A5269824329
:102CF000014B5A61704700000010024029B1064A9A
:102D0000D2690243044BDA6104E0034AD269824388
:102D1000014BDA61704700000010024029B1064AF9
:102D200012690243044B1A6104E0034A12698243A8
:102D3000014B1A61704700000010024029B1064A99
:102D400092690243044B9A6104E0034A9269824308
:102D5000014B9A61704700000010024029B1064AF9
:102D6000D2680243044BDA6004E0034AD26882432B
:102D7000014BDA6070470000001002400149086012
:102D800070470000400442420348406A40F08070AF
:102D900001494862704700000010024030B5002130
:102DA0000022002400232D4D6D6805F00C0121B197
:102DB000042905D0082923D105E0294D056022E02A
:102DC000274D05601FE0254D6D6805F47012234DF9
:102DD0006D6805F48034022505EB92421CB9214D43
:102DE000554305600BE01D4D6D6815F4003F03D0A1
:102DF0001C4D5543056002E0194D5543056002E046
:102E0000174D056000BF00BF144D6D6805F0F0015F
:102E10000909154D6B5C0568DD4045600F4D6D6817
:102E200005F4E061090A104D6B5C4568DD40856082
:102E30000A4D6D6805F46051C90A0B4D6B5C45681D
:102E4000DD40C560054D6D6805F44041890B074DB7
:102E50006B5CC568B5FBF3F5056130BD0010024041
:102E600000127A0000093D00140000202400002018
:102E700010B501460022002300204A11012A02D188
:102E8000094C236806E0022A02D1074C236A01E0BC
:102E9000054C636A01F01F02012494401C4201D0DA
:102EA000012000E0002010BD0010024000210A4A6D
:102EB00011700A4A82F82010012802D0042808D193
:102EC00003E00121044A117004E00521024A117057
:102ED00000E000BF00BF7047201002400010024019
:102EE00001490860704700003C0442420249096AF7
:102EF0000143014A116270470010024010B50446B8
:102F00000420FDF75BFDA0F52541A53907D000F0B1
:102F100029F84AF2A5510420FDF764FD0CE07B205E
:102F2000FFF7A6FF18B101200549087002E07A20DA
:102F3000FFF79EFF00F0D8F8FFF726FF10BD000056
:102F40002A000020024909888143014A1180704704
:102F500004280040024909888143014A11807047D2
:102F60000428004010B501214FF0C050FFF7C6FE05
:102F70000120FFF7EDFA0120FFF7CAFAFDF716FD71
:102F80000120FFF793FF00BF4120FFF771FF0028EA
:102F9000FAD04FF48070FFF7A9FF0120FFF7A0FFE0
:102FA00000F0A2F800F096F847F6FF7000F082F803
:102FB00000F090F810BD00000348008840F01000B9
:102FC0000149088070470000042800400348008839
:102FD0004FF6EF710840014908807047042800400F
:102FE000002103480188001F008841EA0040704723
:102FF0001C28004001460020064A12880A40D0B230
:10300000044A121F12880A4202D008B1012000E0CF
:10301000002070470428004010B50120FFF7EAFFA8
:1030200020B10120FFF796FF00F054F80220FFF7CF
:10303000E1FF20B10220FFF78DFF00F04BF80220E6
:10304000FFF780FF00F046F80420FFF77BFF00F059
:1030500041F810BD08B54FF4A060FFF74FFA032008
:103060008DF8000002208DF801008DF8020001208B
:103070008DF803006846FFF707FA08BD00B5024661
:10308000FFF79AFF100C03490880091D0A80FFF71B
:103090009DFF00BD2028004000B50246FFF78CFFD1
:1030A000100C03490880091D0A80FFF78FFF00BD3F
:1030B0001828004000B50246FFF77EFFC2F3034028
:1030C00003490880091D0A80FFF780FF00BD00004A
:1030D0000828004000BF0348008810F0200FFAD0F5
:1030E0007047000004280040064800884FF6F7713A
:1030F00008400449088000BF0248008810F0080F0B
:10310000FAD0704704280040F0B5C3B0054601ACC2
:10311000002600272878207068786070A878A07052
:10312000E878E0702879207168796071A879A071D9
:10313000E979287A01EB0020A4F8070000BF07E036
:1031400006F10900295C04F109008155701C86B262
:10315000A079B042F4DC2046FFF743F90746012F7F
:1031600016D1E278A07802EB00210AA003F0E8F97A
:10317000002607E004F10900815D0EA003F0E0F9EC
:10318000701C86B2A079B042F4DC012043B0F0BDDF
:103190000020FBE70D0A4461746120726563656974
:1031A00076652066726F6D20253478206973203A29
:1031B0000000000020257820000000002DE9FE43DB
:1031C00007460D4600200290002446A000680190AA
:1031D00045A0006800900026A046A14643A003F049
:1031E000AFF928128DF80600E8B28DF80700042325
:1031F0004FF4967201A94248FEF79CF90446002C50
:103200004CD04048844249D2A679C6F591703C49D9
:103210000844A0423ED92046FFF776FF0290BDF851
:10322000080020B9002438A003F08AF936E0607A5B
:10323000A32827D1A07A202824D1217BE07A01EB92
:103240000020001DC6B2314604F10900FDF7F2FB73
:10325000804606F10A00215C401E205C01EB002044
:103260001FFA80F9C1450AD12FA003F069F92B4656
:103270003A4602A904F1090001F0CCFF02E022A0C5
:1032800003F05EF92F48FEF735F80024BDF808007A
:10329000BDE8FE8300242CA003F052F904234FF470
:1032A000967269461648FEF745F90446ACB11548D2
:1032B000844212D2207918B9601DFFF74FF909E056
:1032C0002079012803D16079FFF7D6FB02E02CA01A
:1032D00003F036F900240020DAE734A003F030F9D7
:1032E0000020D5E7AA000000AFFFAFEE0D0ABDD366
:1032F000CAD5CAFDBEDDBDE2CEF621210D0A000011
:1033000084030020A60400200D0A526563656976D7
:1033100065202064617461206E6F7420636F727227
:1033200065637421210D0A000D0A52656365697693
:103330006520206461746120726967687421210DC1
:103340000A00000020A107000D0A52656365697636
:10335000652064617461206E6F7420696E746567A6
:103360007261746564210D526563656976652062DA
:10337000756666206F766572666C6F77210D0A0040
:103380000D0A526563656976652034333320436FD7
:103390006E66696720436F6D6D616E64206E6F7439
:1033A00020636F7272656374210D0A000D0ABDD32C
:1033B000CAD5CAFDBEDDBDE2CEF6CDEAB3C9212134
:1033C0000D0A0000014601F00100002207E043065B
:1033D000180E491001F001031843531CDAB2072AF2
:1033E000F5DB7047014601F00100002209E04FF6CD
:1033F000FF7303EA4000491001F001031843531C16
:10340000DAB20F2AF3DB704721B1028842F04002A2
:10341000028004E002884FF6BF731A4002807047B2
:1034200070B505460C4616464FF480511048FEF71D
:103430005DF9032000F0B2F9C4F3074000F0AEF9E3
:10344000C4F3072000F0AAF9E0B200F0A7F904E005
:10345000FF2000F0A3F928706D1C3000A6F10101D7
:103460008EB2F5D14FF480510148FEF741F970BD9D
:10347000000C01402DE9F05F07460E4614464FF060
:103480000008C146C2460025AB4606F0FF0ACAF155
:103490000000C5B22046E11704EB1161C1F3072813
:1034A000E11704EB11610912A4EB012101F0FF09FE
:1034B000BAF1000F20D1B8F1000F05D122463146F4
:1034C000384600F0CBF864E009E04FF480723146F2
:1034D000384600F0C3F806F5807607F580775FEA96
:1034E0000800A8F1010101F0FF08EED14A4631467B
:1034F000384600F0B3F84CE0B8F1000F18D1A945F8
:1035000010DDA9EB050000F0FF0B2A4631463846D6
:1035100000F0A4F82E442F445A463146384600F0B5
:103520009DF836E022463146384600F097F830E004
:10353000601B84B22046E11704EB1161C1F3072838
:10354000E11704EB11610912A4EB012101F0FF095D
:103550002A463146384600F081F82E442F4409E0CF
:103560004FF480723146384600F078F806F58076E0
:1035700007F580775FEA0800A8F1010101F0FF0874
:10358000EED1B9F1000F04D04A463146384600F07A
:1035900065F8BDE8F09F000000B587B00121082064
:1035A000FFF7CCFB01218803FFF7A8FB4FF4005085
:1035B000ADF8040003208DF8060018208DF80700F0
:1035C00001A92448FEF700F84FF48040ADF804004C
:1035D00001A92048FDF7F8FF4FF40040ADF80400C2
:1035E00001A91C48FDF7F0FF4FF48050ADF804002E
:1035F00010208DF8070001A91648FDF7E5FF4FF4EC
:1036000080511448FEF774F80020ADF808004FF41C
:103610008270ADF80A000020ADF80C000220ADF871
:103620000E000120ADF810004002ADF81200082095
:10363000ADF814000020ADF816000720ADF8180012
:1036400002A9054800F012F901210348FFF7DCFE4A
:1036500007B000BD000C01400038004070B50546C1
:103660000C46164600F0D0F84FF480511348FEF790
:103670003DF8022000F092F8C4F3074000F08EF805
:10368000C4F3072000F08AF8E0B200F087F8B6F53E
:10369000807F01DD4FF4807603E0287800F07EF82B
:1036A0006D1C3000A6F101018EB2F6D14FF48051AD
:1036B0000248FEF71DF800F08DF870BD000C0140C7
:1036C00010B500244FF480510C48FEF70FF8AB20E2
:1036D00000F064F8FF2000F061F8FF2000F05EF8D1
:1036E000FF2000F05BF8FF2000F058F804464FF48C
:1036F00080510248FDF7FCFF204610BD000C014040
:103700002DE9F04100240025002600274FF48051C8
:103710000F48FDF7EBFF9F2000F040F8FF2000F07E
:103720003DF80546FF2000F039F80646FF2000F07E
:1037300035F807464FF480510548FDF7D9FF2804B6
:1037400040EA062040EA07042046BDE8F081000078
:10375000000C014010B5044600F056F800F03AF8AD
:103760004FF480510C48FDF7C1FF202000F016F8FF
:10377000C4F3074000F012F8C4F3072000F00EF87D
:10378000E0B200F00BF84FF480510348FDF7B0FFB2
:1037900000F020F810BD0000000C014010B50446F8
:1037A00000BF02210A4800F053F80028F9D0214652
:1037B000074800F059F800BF0121054800F048F81B
:1037C0000028F9D0024800F04CF8C0B210BD00004B
:1037D0000038004010B500244FF480510948FDF72F
:1037E00085FF0520FFF7DAFF00BFFF20FFF7D6FFB8
:1037F000044614F0010FF8D14FF480510148FDF751
:1038000077FF10BD000C014010B54FF48051064801
:10381000FDF76CFF0620FFF7C1FF4FF4805102480F
:10382000FDF766FF10BD0000000C014010B54FF41D
:1038300080510648FDF75AFFB920FFF7AFFF4FF45C
:1038400080510248FDF754FF10BD0000000C0140FC
:103850000246002013890B4201D0012000E0002025
:1038600070470146888970478181704710B50022F2
:10387000028802F441520B884C8823438C882343EE
:10388000CC8823430C8923434C8923438C892343CD
:10389000CC8923431A430280838B4FF2FF74234069
:1038A00083830B8A038210BD10B502A002F048FE8C
:1038B00010BD00000D0A5761726E6E696E6721219E
:1038C00020535643616C6C20657863657074696F32
:1038D0006E204F6363757265640D0A002DE9F04F29
:1038E000C3B007460D4690461E4601AC4FF0000B94
:1038F000D946CA462046FEF76CFD2046FEF760FD1D
:10390000E6703012A070FF2D03DDFF2522A002F02B
:1039100017FE2A46394604F10900FCF737FCA57169
:10392000204602F0AEFBA07900F1090529462046A9
:1039300003F01AFDFFF754FB0090FCF71FFCFCF7A7
:1039400013FC462190FBF1F201FB120000F0FF0A8C
:10395000514617A002F0F4FD4FF0000910E019489D
:10396000FDF7C8FC18480078012805D131464046CB
:10397000FDF716FA834607E009F1010000F0FF09A0
:103980000AF128004845EADC00BF10A002F0D8FD8B
:10399000584643B0BDE8F08F0D0A53656E6442751A
:1039A0006666204F766572466C6F7721210D0A009E
:1039B0000D0A52616E646F6D20446174613A256432
:1039C0000D0A0000400D0300340000200D0A53656D
:1039D0006E64204F76657221210D0A002DE9FE43A9
:1039E00004460F469046002600253D4801783DA03C
:1039F00002F0A6FD414880883949097888422ED1D5
:103A0000002084F86400FFF7EBFA06463C49304694
:103A100001F0E2F93A48007838498872384840782D
:103A2000C8723748807808733548C078487334487E
:103A30000079887332488079A0F5FA60C8733048FD
:103A400000782F4949782E4A9278CDE900210290DA
:103A50002B48C3780279C1882AA002F071FD01F0D9
:103A6000B1F83348FDF746FC01F0ACF83048FDF7FB
:103A700041FC94F8645001F0A5F804F13C0101EB1D
:103A8000850108602A48FDF735FCFFF793F804F13B
:103A9000140101EB850108605DB91848C07A174927
:103AA000097BC1EB011100EB810004EB45010880AB
:103AB00009E0681E04EB400000881049498808446A
:103AC00004EB4501088094F86400401C84F864000D
:103AD00003480078401E02490870BDE8FE830000DC
:103AE0002D00002044617461436F6C6C6563744306
:103AF0006F756E743A25640D0A0000008C0000207A
:103B00006A03002054696D653A2025302E34642DF7
:103B100025302E32642D25302E32642025302E3271
:103B2000643A25302E32643A25302E32640D0A0074
:103B300020A107002DE9FF4105462FA30FCB8DE8FB
:103B40000F000026002400273DB1012D05D0022DD5
:103B500003D0032D01D0042D48D18DF80850002446
:103B600005E01DF80400304486B2601CC4B20A2C83
:103B7000F7DB3046F11706EB11610912A6EB0121C4
:103B8000C9B28DF80A100D21684603F0C1FB00246C
:103B900029E01D48FDF7AEFB1C480078012820D124
:103BA000FDF764F887B2002F17DD394618A002F040
:103BB000C7FC1C491CA002F0C3FC002406E0194805
:103BC000015D1DA002F0BCFC601CC4B2BC42F6DB6F
:103BD0004FF496711A48FCF7F2FA00200B4908706E
:103BE00003E0601CC4B20A2CD3DB02E015A002F093
:103BF000A7FCBDE8FF810000AFAF0000AF80190255
:103C0000FF00FF0D0A000000400D030034000020FB
:103C10000D0A446174614C656E6774683A25640DE1
:103C20000A000000840300200D0A55617274333AC3
:103C300025730D0A0000000020252E327820000098
:103C40003D0200200D0A4E6F64652042726561746A
:103C50006820506572696F64206973206F757420E5
:103C60006F66206C696D69747321210D0A00000074
:103C70002DE9FF41044630A30FCB8DE80F0000264D
:103C8000002500274CB1012C07D0022C05D0032CB5
:103C900003D0042C01D0052C48D18DF80840002514
:103CA00005E01DF80500304486B2681CC5B20A2D37
:103CB000F7DB3046F11706EB11610912A6EB012183
:103CC000C9B28DF80A100D21684603F021FB0025CA
:103CD00029E01D48FDF70EFB1C480078012820D183
:103CE000FCF7C4FF87B2002F17DD394618A002F099
:103CF00027FC1C491CA002F023FC002506E0194803
:103D0000415D1DA002F01CFC681CC5B2BD42F6DB83
:103D10004FF496711A48FCF752FA00200B490870CC
:103D200003E0681CC5B20A2DD3DB02E015A002F047
:103D300007FCBDE8FF810000AFAF0000AF801B02B1
:103D4000FF00FF0D0A000000400D030034000020BA
:103D50000D0A446174614C656E6774683A25640DA0
:103D60000A000000840300200D0A55617274333A82
:103D700025730D0A0000000020252E327820000057
:103D80003D0200200D0A4E6F646520427265617429
:103D9000682054696D65206973206F7574206F66A3
:103DA000206C696D69747321210D0A002DE9F047BB
:103DB00086B081463CA3D3E901211868DB68CDE9D0
:103DC0000413CDE9020200250024A2460026B9F51D
:103DD000D27F63DDB9F5FA7F60DC374909FB01F07A
:103DE000FCF7FFFB0746354A354BFCF782FBCDE974
:103DF0000001FCF728FC0646300C8DF81000300A54
:103E00008DF81100F0B28DF8120000BF05E002A895
:103E1000005D284485B2601CC4B20B2CF7DB284639
:103E2000E91705EB11610912A5EB0121C9B28DF863
:103E300013100E2102A803F06BFA00242BE0214896
:103E4000FDF758FA20480078012822D1FCF70EFF30
:103E50001FFA80FABAF1000F17DD51461BA002F0DD
:103E60006FFB1F491FA002F06BFB002406E01C48FB
:103E7000015D20A002F064FB601CC4B25445F6DB77
:103E80004FF496711D48FCF79AF900200E4908700E
:103E900003E0601CC4B20A2CD1DB02E018A002F0DF
:103EA0004FFB06B0BDE8F087AFAF0000AF800B035B
:103EB000FFFFFFFF0D0A000040420F0014AE47E174
:103EC0007A844E40400D0300340000200D0A446106
:103ED00074614C656E6774683A25640D0A000000D1
:103EE000840300200D0A55617274333A25730D0A5C
:103EF0000000000020252E32782000003D02002026
:103F00000D0A43656E7472616C2046726571756549
:103F10006E6379206973206F7574206F66206C69F9
:103F20006D69747321210D0A000000002DE9FF4125
:103F300006462CA30FCB8DE80F0000250024002798
:103F4000062E4ADB092E48DC8DF8086000BF05E02C
:103F50001DF80400284485B2601CC4B20A2CF7DBAB
:103F60002846E91705EB11610912A5EB0121C9B239
:103F70008DF80A100D21684603F0CAF9002429E0E3
:103F80001C48FDF7B7F91C480078012820D1FCF740
:103F90006DFE87B2002F17DD394618A002F0D0FA67
:103FA0001B491CA002F0CCFA002406E01848015D71
:103FB0001CA002F0C5FA601CC4B2BC42F6DB4FF490
:103FC00096711A48FCF7FBF800200B49087003E0D3
:103FD000601CC4B20A2CD3DB02E015A002F0B0FAD8
:103FE000BDE8FF81AFAF0000AF800F02FF00FF0D03
:103FF0000A000000400D0300340000200D0A446157
:1040000074614C656E6774683A25640D0A0000009F
:10401000840300200D0A55617274333A25730D0A2A
:104020000000000020252E32782000003D020020F4
:104030000D0A4672657175656E6379204578706109
:104040006E642042616E64776964746820697320CD
:104050006F7574206F66206C696D69747321210D12
:104060000A0000002DE9FF4106462CA30FCB8DE886
:104070000F00002500240027072E4ADB0C2E48DC09
:104080008DF8086000BF05E01DF80400284485B2E3
:10409000601CC4B20A2CF7DB2846E91705EB116156
:1040A0000912A5EB0121C9B28DF80A100D2168464D
:1040B00003F02EF9002429E01C48FDF71BF91C48E9
:1040C0000078012820D1FCF7D1FD87B2002F17DD41
:1040D000394618A002F034FA1B491CA002F030FA4D
:1040E000002406E01848015D1CA002F029FA601CBB
:1040F000C4B2BC42F6DB4FF496711A48FCF75FF885
:1041000000200B49087003E0601CC4B20A2CD3DB0A
:1041100002E015A002F014FABDE8FF81AFAF000085
:10412000AF800D02FF00FF0D0A000000400D0300EC
:10413000340000200D0A446174614C656E67746838
:104140003A25640D0A000000840300200D0A556121
:104150007274333A25730D0A0000000020252E32B8
:10416000782000003D0200200D0A467265717565D9
:104170006E637920457870616E6420466163746F68
:1041800072206973206F7574206F66206C696D6989
:10419000747321210D0A00002DE9FF4106462BA36F
:1041A0000FCB8DE80F0000250024002730128DF87A
:1041B0000800F0B28DF8090000BF05E01DF804000A
:1041C000284485B2601CC4B20A2CF7DB2846E917E4
:1041D00005EB11610912A5EB0121C9B28DF80A1096
:1041E0000D21684603F094F8002429E01B48FDF7F0
:1041F00081F81B480078012820D1FCF737FD87B2F1
:10420000002F17DD394617A002F09AF91A491BA0B2
:1042100002F096F9002406E01748015D1BA002F0A9
:104220008FF9601CC4B2BC42F6DB4FF4967119489A
:10423000FBF7C5FF00200A49087003E0601CC4B208
:104240000A2CD3DB00BFBDE8FF810000AFAF000048
:10425000AF801302FFFFFF0D0A000000400D0300B6
:10426000340000200D0A446174614C656E67746807
:104270003A25640D0A000000840300200D0A5561F0
:104280007274333A25730D0A0000000020252E3287
:10429000782000003D0200202DE9FF41074629A3B8
:1042A0000FCB8DE80F000025002400268DF8087044
:1042B00000BF05E01DF80400284485B2601CC4B2AC
:1042C0000A2CF7DB2846E91705EB11610912A5EB6B
:1042D0000121C9B28DF80A100D21684603F018F8C3
:1042E000002429E01B48FDF705F81B480078012849
:1042F00020D1FCF7BBFC86B2002E17DD314617A09B
:1043000002F01EF91A491BA002F01AF9002406E077
:104310001748015D1BA002F013F9601CC4B2B4423F
:10432000F6DB4FF496711948FBF749FF00200A4964
:10433000087003E0601CC4B20A2CD3DB00BFBDE8E8
:10434000FF810000AFAF0000AF801502FF00FF0D3E
:104350000A000000400D0300340000200D0A4461F3
:1043600074614C656E6774683A25640D0A0000003C
:10437000840300200D0A55617274333A25730D0AC7
:104380000000000020252E32782000003D02002091
:104390002DE9FF4106462CA30FCB8DE80F00002529
:1043A00000240027012E4ADB072E48DC8DF8086028
:1043B00000BF05E01DF80400284485B2601CC4B2AB
:1043C0000A2CF7DB2846E91705EB11610912A5EB6A
:1043D0000121C9B28DF80A100D21684602F098FF3C
:1043E000002429E01C48FCF785FF1C4800780128C0
:1043F00020D1FCF73BFC87B2002F17DD394618A00F
:1044000002F09EF81B491CA002F09AF8002406E076
:104410001848015D1CA002F093F8601CC4B2BC42B5
:10442000F6DB4FF496711A48FBF7C9FE00200B49E2
:10443000087003E0601CC4B20A2CD3DB02E015A0B4
:1044400002F07EF8BDE8FF81AFAF0000AF80170239
:10445000FF00FF0D0A000000400D030034000020A3
:104460000D0A446174614C656E6774683A25640D89
:104470000A000000840300200D0A55617274333A6B
:1044800025730D0A0000000020252E327820000040
:104490003D0200200D0A4E6F64652053656E642056
:1044A000506F776572204772616465206973206F71
:1044B0007574206F66206C696D69747321210D0A13
:1044C0000000000010B500F001F810BD0CB5002090
:1044D000019000903248006840F480303049086014
:1044E00000BF2F48006800F4003000900198401C85
:1044F0000190009818B90198B0F5A06FF1D1284843
:10450000006810F4003F02D00120009001E000207C
:1045100000900098012842D12248006840F0100025
:10452000204908600846006820F00300086008463B
:10453000006840F002000860194840681849486067
:104540000846406848600846406840F4806048601B
:104550000846406820F47C1048600846406840F4F3
:10456000E81048600846006840F08070086000BFAE
:104570000B48006810F0007FFAD00948406820F02E
:104580000300074948600846406840F00200486060
:1045900000BF0348406800F00C000828F9D10CBDAA
:1045A000001002400020024010B50021602003F0FE
:1045B0004BF8602002F035FC0221612003F044F842
:1045C000612002F02EFC32210F2003F03DF80F2075
:1045D00002F027FC1C21142003F036F8142002F00E
:1045E00020FCED21622003F02FF8622002F019FC7C
:1045F0008021632003F028F8632002F012FC9B2145
:10460000642003F021F8642002F00BFC14216520E3
:1046100003F01AF8652002F004FC8321662003F001
:1046200013F8662002F0FDFB0821672003F00CF868
:10463000672002F0F6FB3221692003F005F86920BB
:1046400002F0EFFB1F216A2002F0FEFF6A2002F059
:10465000E8FB40216B2002F0F7FF6B2002F0E1FB4A
:104660000621682002F0F0FF682002F0DAFB0F213B
:104670006C2002F0E9FF6C2002F0D3FB1C216D20BE
:1046800002F0E2FF6D2002F0CCFB26216E2002F04A
:10469000DBFF6E2002F0C5FB27216F2002F0D4FF64
:1046A0006F2002F0BEFB0721702002F0CDFF7020CA
:1046B00002F0B7FB1021712002F0C6FF712002F05A
:1046C000B0FB1E21722002F0BFFF722002F0A9FB96
:1046D0001221732002F0B8FF732002F0A2FB022126
:1046E000742002F0B1FF742002F09BFB05217520BD
:1046F00002F0AAFF752002F094FB0521762002F05B
:10470000A3FF762002F08DFB0A21772002F09CFFA8
:10471000772002F086FB0421782002F095FF7820B4
:1047200002F07FFB0821792002F08EFF792002F051
:1047300078FB00217A2002F087FF7A2002F071FBDB
:1047400010BD10B500F052FB10BD000030B51A4886
:1047500000681A4AB0FBF2F1B1F1807F01D3012069
:104760001DE021F07F40401E4FF0E02250615017C5
:104770000F22002807DA13071D0E114B00F00F045B
:10478000241F1D5503E013071C0E0E4B1C5400BFC5
:1047900000204FF0E022906107201061002008B156
:1047A00000BFFEE74FF0E020006920F001004FF06D
:1047B000E021086130BD00000000002040420F00F1
:1047C00018ED00E000E400E010B51348006840F088
:1047D00001001149086008464068104908400E4928
:1047E0004860084600680E4908400B4908600846C2
:1047F000006820F4802008600846406820F4FE002D
:1048000048604FF41F008860FFF75CFE4FF00060C7
:104810000449086010BD0000001002400000FFF8CD
:10482000FFFFF6FE08ED00E00EB501210220FEF7C5
:1048300065FA114800F066F841F28730ADF80400DF
:104840004720ADF800004FF40070ADF806000020DE
:10485000ADF802006946084800F062F901210648F7
:1048600000F03DF801221146034800F050F9012103
:10487000014800F03AF80EBD0004004010B50121D7
:104880000B4800F033F990B10121094800F02AF8F3
:1048900000220121064800F03AF90021044800F006
:1048A00024F8034800F02EF801200249087010BDDA
:1048B000000400404100002008B54FF4A060FDF75F
:1048C0001DFE1D208DF8000001208DF801008DF8DF
:1048D00002008DF803006846FDF7D6FD08BDCA4307
:1048E00002827047CA430282704721B1028842F0B7
:1048F0000102028004E002884FF6FE731A40028033
:104900007047000010B504466848844208D1012170
:10491000C014FEF723FA0021E014FEF71FFAC4E0EA
:10492000B4F1804F08D101210846FEF7F7F90021C4
:104930000120FEF7F3F9B8E05D48844208D1012177
:104940000220FEF7EBF900210220FEF7E7F9ACE0C8
:104950005848844208D101210420FEF7DFF90021E4
:104960000420FEF7DBF9A0E05348844208D101217E
:104970000820FEF7D3F900210820FEF7CFF994E0D4
:104980004E48844208D101211020FEF7C7F90021CA
:104990001020FEF7C3F988E04948844208D101217C
:1049A0002020FEF7BBF900212020FEF7B7F97CE0BC
:1049B0004448844208D101214014FEF7CFF9002178
:1049C0006014FEF7CBF970E03F48844209D1012121
:1049D000C804FEF7C3F900214FF40020FEF7BEF92A
:1049E00063E03A48844209D101210805FEF7B6F98F
:1049F00000214FF48010FEF7B1F956E034488442AC
:104A000009D101214805FEF7A9F900214FF4001052
:104A1000FEF7A4F949E02F48844208D10121402043
:104A2000FEF77CF900214020FEF778F93DE02A48A6
:104A3000844208D101218020FEF770F900218020F6
:104A4000FEF76CF931E02548844208D10121801538
:104A5000FEF764F90021A015FEF760F925E0204873
:104A6000844209D101210804FEF778F900214FF4AE
:104A70008030FEF773F918E01A48844209D1012109
:104A80004804FEF76BF900214FF40030FEF766F999
:104A90000BE01548844208D101218804FEF75EF935
:104AA00000214FF48020FEF759F910BD002C014081
:104AB0000004004000080040000C004000100040CE
:104AC0000014004000340140004C014000500140FF
:104AD0000054014000180040001C0040002000402D
:104AE00000400140004401400048014030B502460A
:104AF000002000230024158A05EA0103958905EAB0
:104B0000010413B10CB1012000E0002030BD1AB146
:104B100083890B43838102E083898B4383817047C0
:104B2000002202881D4B98420ED01D4B98420BD09C
:104B3000B0F1804F08D01B4B984205D01A4B9842D9
:104B400002D01A4B984204D14FF68F731A404B880B
:104B50001A43174B984207D0164B984204D04FF691
:104B6000FF431A40CB881A4302808B8883850B88C9
:104B700003850A4B98420BD0094B984208D00E4B44
:104B8000984205D00D4B984202D00D4B984201D16E
:104B90000B7A03860123838270470000002C0140BA
:104BA000003401400004004000080040000C0040B8
:104BB000001000400014004000400140004401404B
:104BC000004801402DE9FE43002441A103C9CDE97D
:104BD000010141A00068009001AE0025A14600201F
:104BE0003E4908703E49087064213E48FBF7E7FAE9
:104BF0003DA001F0A5FC4FF400713D48FCF778FDA5
:104C000044F62060FCF776FB00BF0EE001A8015DD2
:104C1000384801F032FA761C00BF4021354801F0D7
:104C20005EF90028F9D0601CC4B2082CEEDB4FF40A
:104C3000E170FCF75FFB4FF400712D48FCF756FD67
:104C40002D48FCF757FB00243CE02448007801285D
:104C500033D12AA001F074FC002406E02148015D54
:104C600028A001F06DFC601CC4B21D48007884428D
:104C7000F4DB0323642269461A48FCF75BFC054613
:104C8000BDB118485C30854213D22979E87801EB30
:104C900000200A2190FBF1F73846FBF799FC81468A
:104CA0004846FBF7E9FC07463A460B4617A001F0D9
:104CB00047FC00200949087006E01C48FCF71AFB75
:104CC000601CC4B20F2CC0DB00BF4846BDE8FE83A9
:104CD000010300000001840A0103020041000020DA
:104CE0003F000020B00400200D0A31310D0A000001
:104CF00000100140004C004080841E000D0A32323A
:104D00000D0A00002D2D2D25782D2D000D0A506542
:104D100072636570742054656D706572617475722C
:104D200065206973203A25660D0A0000E0930400AF
:104D30003EB50446A07B0C283ADC607B1F2837DC9C
:104D4000207B172834DCE07A3C2831DCA07A3C2830
:104D50002EDCFEF707F917A001F0F2FBFEF7BAF917
:104D6000E07B00F5FA60ADF80600A07B8DF804004A
:104D7000607B8DF80300207B8DF80200E07A8DF8CF
:104D80000100A07A8DF800006846FDF7B3FA684686
:104D900002F07CFA0546FEF77FF9FEF79BF94AF22E
:104DA000A5510420FBF71EFEFEF794F9FDF7ECFF7A
:104DB0003EBD00000D0A52544320636F6E66696762
:104DC00075726564206279205365727665722E2E45
:104DD0002E2E0D0A0000000070B504460D4604F5A5
:104DE000E1462946304602F09BFB70BD044800684E
:104DF00020B103480068401E014908607047000068
:104E0000380000202DE9F04F89B006468A469346C7
:104E10001F46F44808900020079006900590012056
:104E2000049000244FF0000900254FF000080020F6
:104E30000390102002900C20019008980790D72131
:104E40000798FBF7BCF9A320E649087020204870BA
:104E500000BF06E01AF80410E248001D0155601C6E
:104E6000C4B2062CF6DB0120DE498872584602F0F7
:104E7000C2FADC49A1F80B004FF49160A1F80D00D3
:104E8000B1F80D0002F0B7FAD649A1F80D000120E3
:104E9000C8730C200390D44802F0A0FAD149C1F89D
:104EA000AE000121CF48A0F8B210D048417ACD48D9
:104EB00080F8B41090F8B2100398801D0844C0B276
:104EC0000390CB4802F08AFAC64908610321C5481D
:104ED0008182C648C17BC3488175C448817BC14873
:104EE000C175C248417BBF480176017D0398801D92
:104EF0000844C0B2039000240020BA4981F8D600CB
:104F00000398488049E007EB44000088B749498886
:104F100000EBC120A0F1605004EB4402B1493631EE
:104F200001EB8201086004EB4402AE49363101EB2B
:104F30008201086802F052FA04EB4402A9493631B2
:104F400001EB82010860042104EB4402A5483630DD
:104F500000EB8200818007F13C0000EB84000168D7
:104F600004EB44029F48363000EB8200C0F8061084
:104F70009C4890F8D600401C9A4981F8D600084613
:104F8000418804EB4402363000EB820080880844FC
:104F9000801D94494880601CC4B297F86400A04208
:104FA000B1DC904890F8D6404FF000094DE007EB97
:104FB000490000888D49498800EBC120A0F15C5070
:104FC00004EB44028749363101EB8201086004EBAF
:104FD00044028449363101EB8201086802F0FEF98F
:104FE00004EB44027F49363101EB82010860042161
:104FF00004EB44027B48363000EB8200818007F1ED
:10500000140000EB8900016804EB44027548363057
:1050100000EB8200C0F80610724890F8D600401CE1
:10502000704981F8D6000846418804EB44023630C6
:1050300000EB820080880844801D6A494880601C1B
:10504000C4B209F1010000F0FF0997F86400484577
:10505000ADDC6449488802F0CEF9624948801022EC
:1050600030460799FBF792F810255E48AE3007905E
:10507000AE3890F8B200801D00F0FF085949B1F831
:10508000B20002F0B8F95749A1F8B20070194246CF
:105090000799FBF77BF805EB0800C5B251481030C3
:1050A00007901038007D801D00F0FF084D49888A68
:1050B00002F0A1F94B498882701942460799FBF723
:1050C00065F805EB0800C5B2002430E004EB4401AC
:1050D0004448363000EB8100079004EB440141481E
:1050E000363000EB81000079801D00F0FF0805EBF1
:1050F0000800B0F5947F00DD1EE004EB440239495E
:10510000363101EB8201888802F075F904EB440224
:105110003449363101EB8201888070194246079983
:10512000FBF734F805EB0800C5B2601CC4B22D488B
:1051300090F8D600A042C9DC00BF4FF6FF702949A5
:10514000A1F8D400084690F8D4202846691CCDB2B6
:1051500032542448B0F8D40002122846691CCDB25B
:10516000325429463046FBF765FC05901D490598E9
:10517000A1F8D4000598C1B2A81E315405980112B7
:10518000681E31541948007A002803DD1748007A58
:10519000049001E00120049000240DE05B4652469B
:1051A00029463046FEF79AFB06900698B0F5B16F97
:1051B00000D104E0601CC4B204988442EEDB00BF5E
:1051C00029460CA001F0BCF9002405E0315D0FA0D8
:1051D00001F0B6F9601CC4B2AC42F7DB09B0BDE81F
:1051E000F08F000096080020200000608C00002056
:1051F000500000100D0A2D2D2D2D4C656E67746822
:105200003A25642D2D2D2D0D0A0000002D25782D19
:10521000000000002DE9F04FA1B0074688469246F5
:105220009B460026B1460020209000241F900025B8
:105230001E90B97B787B01EB00201FFA80F9B9F54D
:10524000B16F75D009DCB9F1880F72D0B9F5C47FA0
:105250000BD0B9F5627F6DD16EE0A9F5106088388A
:1052600069D0B0F5807FF6D1C2E1F2A001F068F913
:10527000A8F80090F978B87801EB00200C38C6B295
:105280003046F11706EB917189108DF876109DF874
:105290007600002838DD9DF87600142834DC07F10C
:1052A00010001E909DF876001F9000241EE01E98AE
:1052B000016813A840F8241013A951F8240002F043
:1052C0008DF8014613A840F8241050F82410E5A0EA
:1052D00001F036F91F98401EC0B21F901F9800B908
:1052E00008E01E98001D1E90601CC4B29DF8760058
:1052F000A042DCDC00BF13A850F824302146DFA018
:105300001F9A01F01DF902E0E3A001F019F9002055
:10531000EB490870EB482B2213A9CDE90CAB0B909D
:105320006846FAF733FF0FA80FC8FCF7C1FC7CE111
:1053300052E170E175E155E1E3A001F001F9A8F84F
:105340000090F978B87801EB00200C38C6B2062E30
:105350007DDD07F110001E9000241FE11E990868F2
:1053600002F03CF801460E90BEA001F0E9F81E9D47
:105370001E9D286802F032F8DF4A811A904267D0F9
:1053800008DCA0F180500A3809D0472826D05828D8
:105390007ED1D5E0012965D00229F9D189E0A8792B
:1053A000D64908720846007A012806DBD24AFA3A42
:1053B0000121D248083000F079FED048017AD0A00F
:1053C00001F0BEF8CC49FA3913A840F82410E81DC2
:1053D0001E90F01FC6B2601CC4B2DEE0A879C749B7
:1053E000C873E8798873287A4873687A0873A87A4A
:1053F000C872E87A88720846807AC97ABF4A127BF6
:10540000CDE900210290BD48437B827BC17BC2A0D5
:1054100001F096F8B948807B0C2812DCB748407B35
:105420001F280EDCB548007B17280ADCB348C07A79
:105430003C2806DCB148807A3C2802DCAF48FFF704
:1054400077FCAD49B33913A840F8241001E0A8E077
:1054500054E005F10C001E90A6F10C00C6B2601CD1
:10546000C4B29AE0E979A87901EB0020A349488009
:1054700008464188B5A001F063F8A0484088B0F51F
:10548000B46F08DC9C4A521C02219C48801C00E03E
:105490007BE000F00BFE9849491C13A840F824104B
:1054A00005F108001E90A6F10800C6B2601CC4B247
:1054B00073E0E979A87901EB0020904988800846DB
:1054C0008188A9A001F03CF88C488088B0F5B46FC1
:1054D00006DC894A921C02218848001D00F0E6FD86
:1054E0008549891C13A840F8241005F108001E9076
:1054F000A6F10800C6B2601CC4B24EE0E979A879F2
:1055000001EB00207D490880084601889DA001F03C
:1055100017F87A480088B0F5B46F04DC764A0221A7
:10552000764800F0C3FD744913A840F8241005F133
:1055300008001E90A6F10800C6B2601CC4B22CE0A0
:10554000E979A87901EB00206C49C8800846C08839
:10555000B0F5B46F06DC684AA23A02216748801DA4
:1055600000F0A4FD6548C1888FA000F0E9FF624902
:10557000A23913A840F8241005F108001E90A6F1E6
:105580000800C6B2601CC4B207E08EA000F0D8FFCD
:10559000681C1E90701EC6B200BF00BF062E3FF7EB
:1055A000DDAE002C04DD142C02DC8DF8764002E028
:1055B00007208DF8760000204149087041482B22D1
:1055C00013A9CDE90CAB0B906846FAF7DFFD0FA8E5
:1055D0000FC8FCF76DFB28E084A000F0B1FFA8F82D
:1055E000009022E08DA000F0ABFFA8F800901CE036
:1055F00097A000F0A5FFA8F8009031480078012896
:1056000003D159465046FBF7CBFB5A4651462D482D
:1056100000F0A4FE09E09AA000F092FFA8F8009024
:1056200003E0A3A000F08CFF00BF00BF21B0BDE8E5
:10563000F08F00000D0A5265636569766520476545
:1056400074205265717565737420436F6D6D616E62
:10565000642066726F6D205365727665722E0D0A36
:10566000000000000D0A2D2D4379636C652D2D255A
:1056700034782D2D2D2D2E0D0A0000000D0A2D2D14
:10568000693A25642D2D6A3A25642D2D2534782D0F
:105690002D2D2D2E0D0A00000D0A526563656976C9
:1056A0006520436F6D6D616E64204F4944206E6FBD
:1056B0007420636F72726563742E0D0A000000001F
:1056C00034000020110100200D0A526563656976DF
:1056D0006520536574205265717565737420436F3E
:1056E0006D6D616E642066726F6D205365727665B4
:1056F000722E0D0A00000000040100108C00002032
:105700000D0A2D5265747279204E756D2D25782DF8
:105710002D2D2E0D0A0000000D0A2DC4EA2DD4C235
:105720002DC8D52DCAB12DB7D62DC3EBA3BA2D25C3
:10573000642D2D25642D2D25642D2D25642D2D25DD
:10574000642D2D25642D2D2E0D0A00000D0A2D43EC
:105750006F6C6C656374506572696F643A2D2532A5
:10576000782D2D2D2E0D0A000D0A2D436F6C6C65C2
:1057700063744E756D3A2D2532782D2D2D2E0D0A20
:10578000000000000D0A2D436F6C6C65637420539C
:10579000746172742054696D653A2D2532782D2D0F
:1057A0002D2E0D0A000000000D0A2D55706C6F6142
:1057B000644379636C653A2D2532782D2D2D2E0D9D
:1057C0000A0000000D0A5761726E696E672121544C
:1057D0006167204F4944206E6F74207265636F6764
:1057E0006E6974696F6E210D0A0000000D0A526522
:1057F0006365697665205472617020526573706FBD
:105800006E736520436F6D6D616E642066726F6D9F
:10581000205365727665722E0D0A00000D0A5265DE
:105820006365697665205374617274757020526582
:1058300073706F6E736520436F6D6D616E6420666B
:10584000726F6D205365727665722E0D0A0000002E
:105850000D0A526563656976652057616B657570E1
:10586000205265717565737420436F6D6D616E6450
:105870002066726F6D205365727665722E0D0A0078
:105880000D0A526563656976652047657420526527
:1058900073706F6E73652052656365697665204F1E
:1058A0004B206279205365727665722E0D0A0000D6
:1058B0000D0A5761726E696E67212150445520545C
:1058C000797065206E6F74207265636F676E69749E
:1058D000696F6E210D0A000010B540F225511B487A
:1058E00000F00AFB18B340F22551184800F0BBFA4B
:1058F00017480078632806D116A000F021FE00208A
:105900001349087013E0114800F0B2FBC1B210480F
:105910000478601C0E4A10701648015500BF202103
:105920000A4800F0E9FA0128F9D0FEF77DFF0821C6
:10593000064800F0D4FA012806D10821034800F0F7
:1059400089FA024800F094FB10BD0000004C0040B2
:105950003F0000200D0A55415254342052656365C2
:1059600069766520427566662046756C6C21210D4E
:105970000A000000B004002008B54FF4A060FCF756
:10598000BDFD25208DF8000003208DF801000020CA
:105990008DF8020001208DF803006846FCF774FDC5
:1059A00026208DF8000001208DF8010000208DF8E0
:1059B000020001208DF803006846FCF765FD2720F2
:1059C0008DF8000003208DF8010001208DF8020001
:1059D0008DF803006846FCF757FD34208DF8000071
:1059E00002208DF8010001208DF802008DF80300DF
:1059F0006846FCF749FD08BD00B585B0012144F2B9
:105A00000400FDF79BF94FF40070ADF8100018206A
:105A10008DF8130003208DF8120004A92648FBF727
:105A2000D3FD4FF48060ADF8100004208DF8130012
:105A300004A92148FBF7C8FD4FF48070ADF81000B1
:105A400010208DF8130004A91B48FBF7BDFD4FF48F
:105A50000060ADF8100010208DF8130004A916485E
:105A6000FBF7B2FD4FF48050ADF8100010208DF818
:105A7000130004A91048FBF7A7FD4FF4165000903F
:105A80000020ADF80400ADF80600ADF80800ADF850
:105A90000C000C20ADF80A006946084800F07CFABA
:105AA00040F22661054800F0DEF90121034800F0CC
:105AB000E9F905B000BD00000008014000380140D0
:105AC00010B516480088632805D115A000F038FDF0
:105AD00000201249088040F22551194800F00CFAC4
